:0400000051EF03F0C9
:100600000000000E036E000E026E024A032A03BEB3
:1006100013EF03F0110E025C270E0358D8A013EF5E
:1006200003F015EF03F005EF03F034EC03F048ECB2
:1006300003F0320E28EC03F0610E28EC03F0670E95
:1006400028EC03F03FEC03F024EF03F000EF00F0A0
:10065000016E9E9601C0C9FF9EA631EF03F033EFF5
:1006600003F02CEF03F0120094869488800EC76E7E
:10067000280EC66E000EC56E310EC86E1200C584FF
:10068000C5B445EF03F047EF03F040EF03F012006D
:10069000C580C5B04EEF03F050EF03F049EF03F013
:0806A0001200000101EF03F05C
:00000001FF
