:100000000C942A000C9474000C9474000C947400EA
:100010000C9474000C9474000C9474000C94740090
:100020000C9474000C9474000C9474000C94740080
:100030000C9474000C9474000C9474000C94740070
:100040000C9474000C9474000C9474000C94740060
:100050000C94740011241FBECFE5D8E0DEBFCDBFE5
:0C0060000E9436000C945B00F894FFCF67
:10006C000E9443000E944F000E9466000E94700094
:0A007C000E9466000E947000FFCF92
:1000860014BA82E382B984E486BF86B7806886BFE5
:0800960006B607FEFDCF089538
:10009E008FEF81BB86E880BD82E08BB988E08AB99C
:0800AE0087E689B910BC089532
:1000B600EC010E9479000E947800CE010E947A002D
:0600C600CE010E9476004D
:1000CC0084E486BF86B7806886BF06B607FEFDCF80
:0400DC0083B108954F
:0800E0005D9BFECF8CB9089571
:0400E8000C94000074
:0400EC000E9434003A
:0200F000089571
:0200F20008956F
:0200F40008956D
:00000001FF
